S00C00006D61696E2E7372656373
S11300000C9434000C9475000C9451000C94510021
S11300100C9451000C9451000C9451000C94510018
S11300200C9451000C9451000C9451000C94510008
S11300300C9451000C9451000C9451000C945100F8
S11300400C9451000C9451000C9451000C945100E8
S11300500C9451000C9451000C9451000C945100D8
S11300600C9451000C94510011241FBECFEFD8E022
S1130070DEBFCDBF11E0A0E0B1E0ECE7FDE002C0DF
S113008005900D92AA34B107D9F721E0AAE4B1E0B2
S113009001C01D92A435B207E1F70E94E2000C945E
S11300A0BC060C94000080914B01823019F00E9430
S11300B0BC0308950E94D20308950E942203089568
S11300C0CF9310924B010E94AC03C1E0C0934B014B
S11300D00E94770382E080934B010E94B403C09393
S11300E04B010E947703CF9108951F920F920FB690
S11300F00F9211242F933F934F935F936F937F93AA
S11301008F939F93AF93BF93EF93FF9380914C0191
S1130110813049F443E550E064E470E082E090E02B
S11301200E94AE0003C08F5F80934C01FF91EF915A
S1130130BF91AF919F918F917F916F915F914F91FB
S11301403F912F910F900FBE0F901F90189540E094
S11301500E94E70008950E942F020895EF92FF92F3
S11301600F931F93CF93DF93082F162F7A01C0E0CC
S1130170D0E00EC040E050E0612F802F0E94AB0021
S113018080910000811103C0F701099505C02196F3
S1130190C131F7E2DF0774F3DF91CF911F910F9123
S11301A0FF90EF90089541E00E94E700089541E038
S11301B00E947001089540E00E94700108950E9419
S11301C0F90108950E945D000E946000FDCF633430
S11301D071F1643409F453C0623409F078C04111F8
S11301E00EC044B121E030E0B90102C0660F771FB0
S11301F08A95E2F7CB018095842384B90895413030
S113020069F444B121E030E0B90102C0660F771F00
S11302108A95E2F7CB01842B84B9089580E091E0BC
S11302209F938F930E94DE030F900F9008954111C6
S11302300EC047B121E030E0B90102C0660F771F5C
S11302408A95E2F7CB018095842387B908954130DC
S113025069F447B121E030E0B90102C0660F771FAD
S11302608A95E2F7CB01842B87B9089580E091E069
S11302709F938F930E94DE030F900F900895411176
S11302800EC04AB121E030E0B90102C0660F771F09
S11302908A95E2F7CB01809584238AB90895413089
S11302A069F44AB121E030E0B90102C0660F771F5A
S11302B08A95E2F7CB01842B8AB9089580E091E016
S11302C09F938F930E94DE030F900F90089580E117
S11302D091E09F938F930E94DE030F900F900895F7
S11302E0633471F1643409F453C0623409F078C0A2
S11302F041110EC045B121E030E0B90102C0660FE2
S1130300771F8A95E2F7CB018095842385B90895F8
S1130310413069F445B121E030E0B90102C0660F13
S1130320771F8A95E2F7CB01842B85B9089584E27F
S113033091E09F938F930E94DE030F900F90089596
S113034041110EC048B121E030E0B90102C0660F8E
S1130350771F8A95E2F7CB018095842388B90895A5
S1130360413069F448B121E030E0B90102C0660FC0
S1130370771F8A95E2F7CB01842B88B9089584E22C
S113038091E09F938F930E94DE030F900F90089546
S113039041110EC04BB121E030E0B90102C0660F3B
S11303A0771F8A95E2F7CB01809584238BB9089552
S11303B0413069F44BB121E030E0B90102C0660F6D
S11303C0771F8A95E2F7CB01842B8BB9089584E2D9
S11303D091E09F938F930E94DE030F900F900895F6
S11303E080E191E09F938F930E94DE030F900F9022
S11303F00895633489F06434E1F0623439F545B129
S113040021E030E0B90102C0660F771F8A95E2F758
S1130410CB01842785B9089548B121E030E0B901C2
S113042002C0660F771F8A95E2F7CB01842788B94B
S113043008954BB121E030E0B90102C0660F771F87
S11304408A95E2F7CB0184278BB9089580E191E086
S11304509F938F930E94DE030F900F90089563344F
S1130460E1F0643489F1623409F045C093B121E0CC
S113047030E0B901082E02C0660F771F0A94E2F734
S1130480292F30E026233723B90102C075956795DB
S11304908A95E2F7FA016083089596B121E030E08D
S11304A0B901082E02C0660F771F0A94E2F7292FBC
S11304B030E026233723B90102C0759567958A95E4
S11304C0E2F7FA016083089599B121E030E0B901BF
S11304D0082E02C0660F771F0A94E2F7292F30E036
S11304E026233723B90102C0759567958A95E2F7EB
S11304F0FA016083089580E191E09F938F930E94B5
S1130500DE030F900F9008958FB780688FBF81E04E
S11305108DBB83E0809369000895823089F028F4CC
S1130520882341F0813049F014C0833061F0843075
S113053069F00FC081E085BD089582E085BD08950E
S113054083E085BD089584E085BD089585E085BD7B
S1130550089580E391E09F938F930E94DE030F90B0
S11305600F900895823099F028F4882341F0813067
S113057051F019C0833079F0843089F014C081E0DF
S11305808093B100089582E08093B100089584E0DF
S11305908093B100089586E08093B100089587E0C8
S11305A08093B100089580E391E09F938F930E941C
S11305B0DE030F900F900895CF93C62F86BD842F2E
S11305C00E948D02C1110BC0A89BFECF81E085BBA8
S11305D00DC0A89BFECF21E025BB019602C080E0A0
S11305E090E02C2F30E0821793079CF314BCCF913A
S11305F00895CF93C62F8093B200842F0E94B20235
S1130600C1110BC0B99BFECF81E087BB0DC0B99B64
S1130610FECF22E027BB019602C080E090E02C2FA1
S113062030E0821793079CF31092B000CF910895A5
S113063063E481E00E94DF00089562E481E00E94A7
S1130640DF00089563E480E00E94D30063E481E066
S11306500E94D30063E482E00E94D30062E480E05D
S11306600E94D30062E481E00E94D30062E482E04D
S11306700E94D30064E470E082E090E00E94A7004E
S11306800E948402089563E480E00E94D70063E43A
S113069081E00E94DB0063E482E00E94DB000895B5
S11306A062E480E00E94D70062E481E00E94DB0003
S11306B062E482E00E94DB00089563E480E00E942B
S11306C0DB0063E481E00E94DB0063E482E00E94DB
S11306D0D700089562E480E00E94DB0062E481E0D8
S11306E00E94DB0062E482E00E94D7000895CF9369
S11306F0DF93C0E0D0E008C00E94180344E064E047
S11307008CE00E94DC022196C530D105ACF3DF9168
S1130710CF910895CF93DF93C0E0D0E00AC00E9448
S11307201D030E94180344E064E08CE00E94F90277
S11307302196C530D1059CF3DF91CF91089562E4F1
S113074080E00E94DB0062E481E00E94DB0062E45E
S113075082E00E94DB0008950E945D0344E064E1AE
S11307608CE00E94DC0208950E94430344E064E1AB
S11307708CE00E94DC0208950E9450030E948A03C8
S11307800E946A030E94430344E064E18CE00E94F7
S1130790F9020E948A030E9450030E945D030E9492
S11307A09F0308950E946A030E94430344E064E1A6
S11307B08CE00E94F9020E949F030895A0E0B0E03B
S11307C0E4EEF3E00C949506AE014B5F5F4FFA0143
S11307D061917191AF0180915001909151010E94FA
S11307E0F403E2E00C94B106ABE0B0E0EAEFF3E02E
S11307F00C9485066C017B018A01FC011782168228
S1130800838181FFCCC1CE0101963C01F601938125
S1130810F70193FD859193FF81917F01882309F46A
S1130820BAC1853239F493FD859193FF81917F019B
S1130830853229F4B60190E00E94EB05E7CF912CB4
S1130840212C312CFFE1F315D8F08B3279F038F4F8
S1130850803279F08332A1F4232D20611DC08D32C2
S113086061F0803369F4232D216016C0832D8260EA
S1130870382EE32DE4603E2E2AC0F32DF8601DC00F
S113088037FC2DC020ED280F2A3040F08E32B9F409
S113089036FC81C1232D2064322E19C036FE06C0D9
S11308A08AE0989E200D1124922E11C0EAE02E9E1B
S11308B0200D1124222EF32DF0623F2E08C08C3619
S11308C021F4832D8068382E02C0883641F4F70164
S11308D093FD859193FF81917F018111B3CF982F6F
S11308E09F7D9554933028F40C5F1F4F9FE39983A9
S11308F00DC0833631F0833771F0833509F059C068
S113090021C0F801808189830E5F1F4F882483945E
S1130910912C530113C02801F2E04F0E511CF80131
S1130920A080B18036FE03C0692D70E002C06FEF75
S11309307FEFC5010E94E0054C018201F32DFF7792
S11309403F2E16C0280122E0420E511CF801A0805F
S1130950B18036FE03C0692D70E002C06FEF7FEFF7
S1130960C5010E94D5054C01F32DF0683F2E82018C
S113097033FC1BC0822D90E088169906B0F4B601B2
S113098080E290E00E94EB052A94F4CFF50137FC55
S1130990859137FE81915F01B60190E00E94EB05DD
S11309A021102A9421E0821A91088114910471F78C
S11309B0E8C0843611F0893641F5F80137FE07C0E6
S11309C060817181828193810C5F1F4F08C06081B7
S11309D07181072E000C880B990B0E5F1F4FF32DAE
S11309E0FF763F2E97FF09C090958095709561958D
S11309F07F4F8F4F9F4FF0683F2E2AE030E0A301D6
S1130A000E942706882E861845C0853731F4232D89
S1130A102F7EB22E2AE030E025C0932D997FB92E87
S1130A208F36C1F018F4883579F0B5C0803719F0E5
S1130A30883721F0B0C0E92FE061BE2EB4FE0DC0AE
S1130A40FB2DF460BF2E09C034FE0AC0292F266096
S1130A50B22E06C028E030E005C020E130E002C03C
S1130A6020E132E0F801B7FE07C060817181828124
S1130A7093810C5F1F4F06C06081718180E090E01C
S1130A800E5F1F4FA3010E942706882E8618FB2D98
S1130A90FF773F2E36FE0DC0232D2E7FA22E891404
S1130AA058F434FE0BC032FC09C0832D8E7EA82E70
S1130AB005C0B82CA32C03C0B82C01C0B92CA4FECB
S1130AC00FC0FE01E80DF11D8081803321F49A2DC1
S1130AD0997EA92E09C0A2FE06C0B394B39404C0A3
S1130AE08A2D867809F0B394A3FC11C0A0FE06C039
S1130AF0B21488F4280C922C9B180EC0B21460F423
S1130B00B60180E290E00E94EB05B394F7CFB214F3
S1130B1018F42B1802C0982C212CA4FE10C0B60186
S1130B2080E390E00E94EB05A2FE17C0A1FC03C085
S1130B3088E790E002C088E590E0B6010CC08A2DF9
S1130B40867859F0A1FE02C08BE201C080E2A7FCC6
S1130B508DE2B60190E00E94EB05891438F4B601E9
S1130B6080E390E00E94EB059A94F7CF8A94F30116
S1130B70E80DF11D8081B60190E00E94EB05811023
S1130B80F5CF222009F442CEB60180E290E00E9423
S1130B90EB052A94F6CFF6018681978102C08FEF88
S1130BA09FEF2B96E2E10C94A106FC0105906150A5
S1130BB070400110D8F7809590958E0F9F1F08956F
S1130BC0FC016150704001900110D8F78095909518
S1130BD08E0F9F1F08950F931F93CF93DF93FB01F5
S1130BE0238121FD03C08FEF9FEF2CC022FF16C08D
S1130BF046815781248135814217530744F4A081EB
S1130C00B1819D012F5F3F4F318320838C932681D7
S1130C1037812F5F3F4F3783268314C08B01EC014C
S1130C20FB010084F185E02D0995892BE1F6D801BB
S1130C3016968D919C911797019617969C938E9377
S1130C401697CE01DF91CF911F910F910895FA016C
S1130C50AA27283051F1203181F1E8946F936E7FF7
S1130C606E5F7F4F8F4F9F4FAF4FB1E03ED0B4E0E8
S1130C703CD0670F781F891F9A1FA11D680F791F29
S1130C808A1F911DA11D6A0F711D811D911DA11D3A
S1130C9020D009F468943F912AE0269F112430194A
S1130CA0305D3193DEF6CF010895462F4770405DE5
S1130CB04193B3E00FD0C9F7F6CF462F4F70405D94
S1130CC04A3318F0495D31FD4052419302D0A9F7EF
S1130CD0EACFB4E0A6959795879577956795BA95E9
S1130CE0C9F700976105710508959B01AC010A2EAF
S1130CF006945795479537952795BA95C9F7620F86
S1130D00731F841F951FA01D08952F923F924F9229
S1130D105F926F927F928F929F92AF92BF92CF9287
S1130D20DF92EF92FF920F931F93CF93DF93CDB790
S1130D30DEB7CA1BDB0B0FB6F894DEBF0FBECDBF08
S1130D4009942A88398848885F846E847D848C84D9
S1130D509B84AA84B984C884DF80EE80FD800C81E2
S1130D601B81AA81B981CE0FD11D0FB6F894DEBFC5
S10F0D700FBECDBFED010895F894FFCF35
S1130D7C57726F6E6720646972656374696F6E0075
S1130D8C556E617661696C61626C6520506F72742A
S1130D9C2021210057726F6E672056616C756500B7
S1130DAC556E617661696C61626C652070726573F5
S10D0DBC63616C616572202121005F
S9030000FC
